{
  "_format": "hh-sol-artifact-1",
  "contractName": "Keyboards",
  "sourceName": "contracts/Keyboards.sol",
  "abi": [
    {
      "inputs": [
        {
          "internalType": "enum Keyboards.KeyboardKind",
          "name": "_kind",
          "type": "uint8"
        },
        {
          "internalType": "bool",
          "name": "_isPBT",
          "type": "bool"
        },
        {
          "internalType": "string",
          "name": "_filter",
          "type": "string"
        }
      ],
      "name": "create",
      "outputs": [],
      "stateMutability": "nonpayable",
      "type": "function"
    },
    {
      "inputs": [
        {
          "internalType": "uint256",
          "name": "",
          "type": "uint256"
        }
      ],
      "name": "createdKeyboards",
      "outputs": [
        {
          "internalType": "enum Keyboards.KeyboardKind",
          "name": "kind",
          "type": "uint8"
        },
        {
          "internalType": "bool",
          "name": "isPBT",
          "type": "bool"
        },
        {
          "internalType": "string",
          "name": "filter",
          "type": "string"
        },
        {
          "internalType": "address",
          "name": "owner",
          "type": "address"
        }
      ],
      "stateMutability": "view",
      "type": "function"
    },
    {
      "inputs": [],
      "name": "getKeyboards",
      "outputs": [
        {
          "components": [
            {
              "internalType": "enum Keyboards.KeyboardKind",
              "name": "kind",
              "type": "uint8"
            },
            {
              "internalType": "bool",
              "name": "isPBT",
              "type": "bool"
            },
            {
              "internalType": "string",
              "name": "filter",
              "type": "string"
            },
            {
              "internalType": "address",
              "name": "owner",
              "type": "address"
            }
          ],
          "internalType": "struct Keyboards.Keyboard[]",
          "name": "",
          "type": "tuple[]"
        }
      ],
      "stateMutability": "view",
      "type": "function"
    },
    {
      "inputs": [
        {
          "internalType": "uint256",
          "name": "_index",
          "type": "uint256"
        }
      ],
      "name": "tip",
      "outputs": [],
      "stateMutability": "payable",
      "type": "function"
    }
  ],
  "bytecode": "0x608060405234801561001057600080fd5b50610ca6806100206000396000f3fe60806040526004361061003f5760003560e01c806352810aa114610044578063778bc8471461006f578063d80ad431146100af578063e8b69bc3146100d8575b600080fd5b34801561005057600080fd5b506100596100f4565b6040516100669190610a09565b60405180910390f35b34801561007b57600080fd5b5061009660048036038101906100919190610828565b6102dd565b6040516100a69493929190610a2b565b60405180910390f35b3480156100bb57600080fd5b506100d660048036038101906100d191906107bc565b6103df565b005b6100f260048036038101906100ed9190610828565b6105a1565b005b60606000805480602002602001604051908101604052809291908181526020016000905b828210156102d457838290600052602060002090600302016040518060800160405290816000820160009054906101000a900460ff166004811115610186577f4e487b7100000000000000000000000000000000000000000000000000000000600052602160045260246000fd5b60048111156101be577f4e487b7100000000000000000000000000000000000000000000000000000000600052602160045260246000fd5b81526020016000820160019054906101000a900460ff161515151581526020016001820180546101ed90610b7d565b80601f016020809104026020016040519081016040528092919081815260200182805461021990610b7d565b80156102665780601f1061023b57610100808354040283529160200191610266565b820191906000526020600020905b81548152906001019060200180831161024957829003601f168201915b505050505081526020016002820160009054906101000a900473ffffffffffffffffffffffffffffffffffffffff1673ffffffffffffffffffffffffffffffffffffffff1673ffffffffffffffffffffffffffffffffffffffff168152505081526020019060010190610118565b50505050905090565b600081815481106102ed57600080fd5b90600052602060002090600302016000915090508060000160009054906101000a900460ff16908060000160019054906101000a900460ff169080600101805461033690610b7d565b80601f016020809104026020016040519081016040528092919081815260200182805461036290610b7d565b80156103af5780601f10610384576101008083540402835291602001916103af565b820191906000526020600020905b81548152906001019060200180831161039257829003601f168201915b5050505050908060020160009054906101000a900473ffffffffffffffffffffffffffffffffffffffff16905084565b60006040518060800160405280866004811115610425577f4e487b7100000000000000000000000000000000000000000000000000000000600052602160045260246000fd5b8152602001851515815260200184848080601f016020809104026020016040519081016040528093929190818152602001838380828437600081840152601f19601f8201169050808301925050505050505081526020013373ffffffffffffffffffffffffffffffffffffffff16815250908060018154018082558091505060019003906000526020600020906003020160009091909190915060008201518160000160006101000a81548160ff02191690836004811115610510577f4e487b7100000000000000000000000000000000000000000000000000000000600052602160045260246000fd5b021790555060208201518160000160016101000a81548160ff0219169083151502179055506040820151816001019080519060200190610551929190610690565b5060608201518160020160006101000a81548173ffffffffffffffffffffffffffffffffffffffff021916908373ffffffffffffffffffffffffffffffffffffffff160217905550505050505050565b60008082815481106105dc577f4e487b7100000000000000000000000000000000000000000000000000000000600052603260045260246000fd5b906000526020600020906003020160020160009054906101000a900473ffffffffffffffffffffffffffffffffffffffff169050600073ffffffffffffffffffffffffffffffffffffffff168173ffffffffffffffffffffffffffffffffffffffff161461068c578073ffffffffffffffffffffffffffffffffffffffff166108fc349081150290604051600060405180830381858888f1935050505015801561068a573d6000803e3d6000fd5b505b5050565b82805461069c90610b7d565b90600052602060002090601f0160209004810192826106be5760008555610705565b82601f106106d757805160ff1916838001178555610705565b82800160010185558215610705579182015b828111156107045782518255916020019190600101906106e9565b5b5090506107129190610716565b5090565b5b8082111561072f576000816000905550600101610717565b5090565b60008135905061074281610c32565b92915050565b60008135905061075781610c49565b92915050565b60008083601f84011261076f57600080fd5b8235905067ffffffffffffffff81111561078857600080fd5b6020830191508360018202830111156107a057600080fd5b9250929050565b6000813590506107b681610c59565b92915050565b600080600080606085870312156107d257600080fd5b60006107e087828801610748565b94505060206107f187828801610733565b935050604085013567ffffffffffffffff81111561080e57600080fd5b61081a8782880161075d565b925092505092959194509250565b60006020828403121561083a57600080fd5b6000610848848285016107a7565b91505092915050565b600061085d83836109a6565b905092915050565b61086e81610add565b82525050565b61087d81610add565b82525050565b600061088e82610a87565b6108988185610aaa565b9350836020820285016108aa85610a77565b8060005b858110156108e657848403895281516108c78582610851565b94506108d283610a9d565b925060208a019950506001810190506108ae565b50829750879550505050505092915050565b61090181610aef565b82525050565b61091081610aef565b82525050565b61091f81610b38565b82525050565b61092e81610b38565b82525050565b600061093f82610a92565b6109498185610abb565b9350610959818560208601610b4a565b61096281610c0d565b840191505092915050565b600061097882610a92565b6109828185610acc565b9350610992818560208601610b4a565b61099b81610c0d565b840191505092915050565b60006080830160008301516109be6000860182610916565b5060208301516109d160208601826108f8565b50604083015184820360408601526109e98282610934565b91505060608301516109fe6060860182610865565b508091505092915050565b60006020820190508181036000830152610a238184610883565b905092915050565b6000608082019050610a406000830187610925565b610a4d6020830186610907565b8181036040830152610a5f818561096d565b9050610a6e6060830184610874565b95945050505050565b6000819050602082019050919050565b600081519050919050565b600081519050919050565b6000602082019050919050565b600082825260208201905092915050565b600082825260208201905092915050565b600082825260208201905092915050565b6000610ae882610b0e565b9050919050565b60008115159050919050565b6000819050610b0982610c1e565b919050565b600073ffffffffffffffffffffffffffffffffffffffff82169050919050565b6000819050919050565b6000610b4382610afb565b9050919050565b60005b83811015610b68578082015181840152602081019050610b4d565b83811115610b77576000848401525b50505050565b60006002820490506001821680610b9557607f821691505b60208210811415610ba957610ba8610bde565b5b50919050565b7f4e487b7100000000000000000000000000000000000000000000000000000000600052602160045260246000fd5b7f4e487b7100000000000000000000000000000000000000000000000000000000600052602260045260246000fd5b6000601f19601f8301169050919050565b60058110610c2f57610c2e610baf565b5b50565b610c3b81610aef565b8114610c4657600080fd5b50565b60058110610c5657600080fd5b50565b610c6281610b2e565b8114610c6d57600080fd5b5056fea26469706673582212203074634d631c05f80dc80f37298484e7e1364ad12d6d5c316547d12c306e12b364736f6c63430008040033",
  "linkReferences": {},
  "deployedLinkReferences": {}
}