{
  "_format": "hh-sol-artifact-1",
  "contractName": "Keyboards",
  "sourceName": "contracts/Keyboards.sol",
  "abi": [
    {
      "anonymous": false,
      "inputs": [
        {
          "components": [
            {
              "internalType": "enum Keyboards.KeyboardKind",
              "name": "kind",
              "type": "uint8"
            },
            {
              "internalType": "bool",
              "name": "isPBT",
              "type": "bool"
            },
            {
              "internalType": "string",
              "name": "filter",
              "type": "string"
            },
            {
              "internalType": "address",
              "name": "owner",
              "type": "address"
            }
          ],
          "indexed": false,
          "internalType": "struct Keyboards.Keyboard",
          "name": "keyboard",
          "type": "tuple"
        }
      ],
      "name": "KeyboardCreated",
      "type": "event"
    },
    {
      "anonymous": false,
      "inputs": [
        {
          "indexed": false,
          "internalType": "address",
          "name": "recipient",
          "type": "address"
        },
        {
          "indexed": false,
          "internalType": "uint256",
          "name": "amount",
          "type": "uint256"
        }
      ],
      "name": "TipSent",
      "type": "event"
    },
    {
      "inputs": [
        {
          "internalType": "enum Keyboards.KeyboardKind",
          "name": "_kind",
          "type": "uint8"
        },
        {
          "internalType": "bool",
          "name": "_isPBT",
          "type": "bool"
        },
        {
          "internalType": "string",
          "name": "_filter",
          "type": "string"
        }
      ],
      "name": "create",
      "outputs": [],
      "stateMutability": "nonpayable",
      "type": "function"
    },
    {
      "inputs": [
        {
          "internalType": "uint256",
          "name": "",
          "type": "uint256"
        }
      ],
      "name": "createdKeyboards",
      "outputs": [
        {
          "internalType": "enum Keyboards.KeyboardKind",
          "name": "kind",
          "type": "uint8"
        },
        {
          "internalType": "bool",
          "name": "isPBT",
          "type": "bool"
        },
        {
          "internalType": "string",
          "name": "filter",
          "type": "string"
        },
        {
          "internalType": "address",
          "name": "owner",
          "type": "address"
        }
      ],
      "stateMutability": "view",
      "type": "function"
    },
    {
      "inputs": [],
      "name": "getKeyboards",
      "outputs": [
        {
          "components": [
            {
              "internalType": "enum Keyboards.KeyboardKind",
              "name": "kind",
              "type": "uint8"
            },
            {
              "internalType": "bool",
              "name": "isPBT",
              "type": "bool"
            },
            {
              "internalType": "string",
              "name": "filter",
              "type": "string"
            },
            {
              "internalType": "address",
              "name": "owner",
              "type": "address"
            }
          ],
          "internalType": "struct Keyboards.Keyboard[]",
          "name": "",
          "type": "tuple[]"
        }
      ],
      "stateMutability": "view",
      "type": "function"
    },
    {
      "inputs": [
        {
          "internalType": "uint256",
          "name": "_index",
          "type": "uint256"
        }
      ],
      "name": "tip",
      "outputs": [],
      "stateMutability": "payable",
      "type": "function"
    }
  ],
  "bytecode": "0x608060405234801561001057600080fd5b50610e5d806100206000396000f3fe60806040526004361061003f5760003560e01c806352810aa114610044578063778bc8471461006f578063d80ad431146100af578063e8b69bc3146100d8575b600080fd5b34801561005057600080fd5b506100596100f4565b6040516100669190610b68565b60405180910390f35b34801561007b57600080fd5b50610096600480360381019061009191906108dd565b6102dd565b6040516100a69493929190610b8a565b60405180910390f35b3480156100bb57600080fd5b506100d660048036038101906100d19190610871565b6103df565b005b6100f260048036038101906100ed91906108dd565b6105de565b005b60606000805480602002602001604051908101604052809291908181526020016000905b828210156102d457838290600052602060002090600302016040518060800160405290816000820160009054906101000a900460ff166004811115610186577f4e487b7100000000000000000000000000000000000000000000000000000000600052602160045260246000fd5b60048111156101be577f4e487b7100000000000000000000000000000000000000000000000000000000600052602160045260246000fd5b81526020016000820160019054906101000a900460ff161515151581526020016001820180546101ed90610d34565b80601f016020809104026020016040519081016040528092919081815260200182805461021990610d34565b80156102665780601f1061023b57610100808354040283529160200191610266565b820191906000526020600020905b81548152906001019060200180831161024957829003601f168201915b505050505081526020016002820160009054906101000a900473ffffffffffffffffffffffffffffffffffffffff1673ffffffffffffffffffffffffffffffffffffffff1673ffffffffffffffffffffffffffffffffffffffff168152505081526020019060010190610118565b50505050905090565b600081815481106102ed57600080fd5b90600052602060002090600302016000915090508060000160009054906101000a900460ff16908060000160019054906101000a900460ff169080600101805461033690610d34565b80601f016020809104026020016040519081016040528092919081815260200182805461036290610d34565b80156103af5780601f10610384576101008083540402835291602001916103af565b820191906000526020600020905b81548152906001019060200180831161039257829003601f168201915b5050505050908060020160009054906101000a900473ffffffffffffffffffffffffffffffffffffffff16905084565b60006040518060800160405280866004811115610425577f4e487b7100000000000000000000000000000000000000000000000000000000600052602160045260246000fd5b8152602001851515815260200184848080601f016020809104026020016040519081016040528093929190818152602001838380828437600081840152601f19601f8201169050808301925050505050505081526020013373ffffffffffffffffffffffffffffffffffffffff168152509050600081908060018154018082558091505060019003906000526020600020906003020160009091909190915060008201518160000160006101000a81548160ff02191690836004811115610515577f4e487b7100000000000000000000000000000000000000000000000000000000600052602160045260246000fd5b021790555060208201518160000160016101000a81548160ff0219169083151502179055506040820151816001019080519060200190610556929190610745565b5060608201518160020160006101000a81548173ffffffffffffffffffffffffffffffffffffffff021916908373ffffffffffffffffffffffffffffffffffffffff16021790555050507f10a5f72cc15ad697630d0470547e58335ec196e4ce08851d095d19398b1cbdd7816040516105cf9190610bd6565b60405180910390a15050505050565b6000808281548110610619577f4e487b7100000000000000000000000000000000000000000000000000000000600052603260045260246000fd5b906000526020600020906003020160020160009054906101000a900473ffffffffffffffffffffffffffffffffffffffff1690506000349050600073ffffffffffffffffffffffffffffffffffffffff168273ffffffffffffffffffffffffffffffffffffffff161415806106ba57503373ffffffffffffffffffffffffffffffffffffffff168273ffffffffffffffffffffffffffffffffffffffff1614155b15610740578173ffffffffffffffffffffffffffffffffffffffff166108fc829081150290604051600060405180830381858888f19350505050158015610705573d6000803e3d6000fd5b507f171011172a05babdafffeb4c3cb97a07f0e1e7a0538eab4f4331336fb76fef058282604051610737929190610b3f565b60405180910390a15b505050565b82805461075190610d34565b90600052602060002090601f01602090048101928261077357600085556107ba565b82601f1061078c57805160ff19168380011785556107ba565b828001600101855582156107ba579182015b828111156107b957825182559160200191906001019061079e565b5b5090506107c791906107cb565b5090565b5b808211156107e45760008160009055506001016107cc565b5090565b6000813590506107f781610de9565b92915050565b60008135905061080c81610e00565b92915050565b60008083601f84011261082457600080fd5b8235905067ffffffffffffffff81111561083d57600080fd5b60208301915083600182028301111561085557600080fd5b9250929050565b60008135905061086b81610e10565b92915050565b6000806000806060858703121561088757600080fd5b6000610895878288016107fd565b94505060206108a6878288016107e8565b935050604085013567ffffffffffffffff8111156108c357600080fd5b6108cf87828801610812565b925092505092959194509250565b6000602082840312156108ef57600080fd5b60006108fd8482850161085c565b91505092915050565b60006109128383610a6a565b905092915050565b61092381610cb9565b82525050565b61093281610c5e565b82525050565b61094181610c5e565b82525050565b600061095282610c08565b61095c8185610c2b565b93508360208202850161096e85610bf8565b8060005b858110156109aa578484038952815161098b8582610906565b945061099683610c1e565b925060208a01995050600181019050610972565b50829750879550505050505092915050565b6109c581610c70565b82525050565b6109d481610c70565b82525050565b6109e381610ccb565b82525050565b6109f281610ccb565b82525050565b6000610a0382610c13565b610a0d8185610c3c565b9350610a1d818560208601610d01565b610a2681610dc4565b840191505092915050565b6000610a3c82610c13565b610a468185610c4d565b9350610a56818560208601610d01565b610a5f81610dc4565b840191505092915050565b6000608083016000830151610a8260008601826109da565b506020830151610a9560208601826109bc565b5060408301518482036040860152610aad82826109f8565b9150506060830151610ac26060860182610929565b508091505092915050565b6000608083016000830151610ae560008601826109da565b506020830151610af860208601826109bc565b5060408301518482036040860152610b1082826109f8565b9150506060830151610b256060860182610929565b508091505092915050565b610b3981610caf565b82525050565b6000604082019050610b54600083018561091a565b610b616020830184610b30565b9392505050565b60006020820190508181036000830152610b828184610947565b905092915050565b6000608082019050610b9f60008301876109e9565b610bac60208301866109cb565b8181036040830152610bbe8185610a31565b9050610bcd6060830184610938565b95945050505050565b60006020820190508181036000830152610bf08184610acd565b905092915050565b6000819050602082019050919050565b600081519050919050565b600081519050919050565b6000602082019050919050565b600082825260208201905092915050565b600082825260208201905092915050565b600082825260208201905092915050565b6000610c6982610c8f565b9050919050565b60008115159050919050565b6000819050610c8a82610dd5565b919050565b600073ffffffffffffffffffffffffffffffffffffffff82169050919050565b6000819050919050565b6000610cc482610cdd565b9050919050565b6000610cd682610c7c565b9050919050565b6000610ce882610cef565b9050919050565b6000610cfa82610c8f565b9050919050565b60005b83811015610d1f578082015181840152602081019050610d04565b83811115610d2e576000848401525b50505050565b60006002820490506001821680610d4c57607f821691505b60208210811415610d6057610d5f610d95565b5b50919050565b7f4e487b7100000000000000000000000000000000000000000000000000000000600052602160045260246000fd5b7f4e487b7100000000000000000000000000000000000000000000000000000000600052602260045260246000fd5b6000601f19601f8301169050919050565b60058110610de657610de5610d66565b5b50565b610df281610c70565b8114610dfd57600080fd5b50565b60058110610e0d57600080fd5b50565b610e1981610caf565b8114610e2457600080fd5b5056fea2646970667358221220f9c0bbd2353595ee0d0e1b72b1310f47dcc5104c34e3100074d41e7360ae38dc64736f6c63430008040033",
  "linkReferences": {},
  "deployedLinkReferences": {}
}