{
  "_format": "hh-sol-artifact-1",
  "contractName": "Keyboards",
  "sourceName": "contracts/Keyboards.sol",
  "abi": [
    {
      "inputs": [
        {
          "internalType": "enum Keyboards.KeyboardKind",
          "name": "_kind",
          "type": "uint8"
        },
        {
          "internalType": "bool",
          "name": "_isPBT",
          "type": "bool"
        },
        {
          "internalType": "string",
          "name": "_filter",
          "type": "string"
        }
      ],
      "name": "create",
      "outputs": [],
      "stateMutability": "nonpayable",
      "type": "function"
    },
    {
      "inputs": [
        {
          "internalType": "uint256",
          "name": "",
          "type": "uint256"
        }
      ],
      "name": "createdKeyboards",
      "outputs": [
        {
          "internalType": "enum Keyboards.KeyboardKind",
          "name": "kind",
          "type": "uint8"
        },
        {
          "internalType": "bool",
          "name": "isPBT",
          "type": "bool"
        },
        {
          "internalType": "string",
          "name": "filter",
          "type": "string"
        }
      ],
      "stateMutability": "view",
      "type": "function"
    },
    {
      "inputs": [],
      "name": "getKeyboards",
      "outputs": [
        {
          "components": [
            {
              "internalType": "enum Keyboards.KeyboardKind",
              "name": "kind",
              "type": "uint8"
            },
            {
              "internalType": "bool",
              "name": "isPBT",
              "type": "bool"
            },
            {
              "internalType": "string",
              "name": "filter",
              "type": "string"
            }
          ],
          "internalType": "struct Keyboards.Keyboard[]",
          "name": "",
          "type": "tuple[]"
        }
      ],
      "stateMutability": "view",
      "type": "function"
    }
  ],
  "bytecode": "0x608060405234801561001057600080fd5b50610a25806100206000396000f3fe608060405234801561001057600080fd5b50600436106100415760003560e01c806352810aa114610046578063778bc84714610064578063d80ad43114610096575b600080fd5b61004e6100b2565b60405161005b91906107c8565b60405180910390f35b61007e60048036038101906100799190610618565b610245565b60405161008d939291906107ea565b60405180910390f35b6100b060048036038101906100ab91906105ac565b610321565b005b60606000805480602002602001604051908101604052809291908181526020016000905b8282101561023c57838290600052602060002090600202016040518060600160405290816000820160009054906101000a900460ff166004811115610144577f4e487b7100000000000000000000000000000000000000000000000000000000600052602160045260246000fd5b600481111561017c577f4e487b7100000000000000000000000000000000000000000000000000000000600052602160045260246000fd5b81526020016000820160019054906101000a900460ff161515151581526020016001820180546101ab906108fc565b80601f01602080910402602001604051908101604052809291908181526020018280546101d7906108fc565b80156102245780601f106101f957610100808354040283529160200191610224565b820191906000526020600020905b81548152906001019060200180831161020757829003601f168201915b505050505081525050815260200190600101906100d6565b50505050905090565b6000818154811061025557600080fd5b90600052602060002090600202016000915090508060000160009054906101000a900460ff16908060000160019054906101000a900460ff169080600101805461029e906108fc565b80601f01602080910402602001604051908101604052809291908181526020018280546102ca906108fc565b80156103175780601f106102ec57610100808354040283529160200191610317565b820191906000526020600020905b8154815290600101906020018083116102fa57829003601f168201915b5050505050905083565b60006040518060600160405280866004811115610367577f4e487b7100000000000000000000000000000000000000000000000000000000600052602160045260246000fd5b8152602001851515815260200184848080601f016020809104026020016040519081016040528093929190818152602001838380828437600081840152601f19601f82011690508083019250505050505050815250908060018154018082558091505060019003906000526020600020906002020160009091909190915060008201518160000160006101000a81548160ff02191690836004811115610436577f4e487b7100000000000000000000000000000000000000000000000000000000600052602160045260246000fd5b021790555060208201518160000160016101000a81548160ff0219169083151502179055506040820151816001019080519060200190610477929190610480565b50505050505050565b82805461048c906108fc565b90600052602060002090601f0160209004810192826104ae57600085556104f5565b82601f106104c757805160ff19168380011785556104f5565b828001600101855582156104f5579182015b828111156104f45782518255916020019190600101906104d9565b5b5090506105029190610506565b5090565b5b8082111561051f576000816000905550600101610507565b5090565b600081359050610532816109b1565b92915050565b600081359050610547816109c8565b92915050565b60008083601f84011261055f57600080fd5b8235905067ffffffffffffffff81111561057857600080fd5b60208301915083600182028301111561059057600080fd5b9250929050565b6000813590506105a6816109d8565b92915050565b600080600080606085870312156105c257600080fd5b60006105d087828801610538565b94505060206105e187828801610523565b935050604085013567ffffffffffffffff8111156105fe57600080fd5b61060a8782880161054d565b925092505092959194509250565b60006020828403121561062a57600080fd5b600061063884828501610597565b91505092915050565b600061064d8383610778565b905092915050565b600061066082610838565b61066a818561085b565b93508360208202850161067c85610828565b8060005b858110156106b857848403895281516106998582610641565b94506106a48361084e565b925060208a01995050600181019050610680565b50829750879550505050505092915050565b6106d38161088e565b82525050565b6106e28161088e565b82525050565b6106f1816108b7565b82525050565b610700816108b7565b82525050565b600061071182610843565b61071b818561086c565b935061072b8185602086016108c9565b6107348161098c565b840191505092915050565b600061074a82610843565b610754818561087d565b93506107648185602086016108c9565b61076d8161098c565b840191505092915050565b600060608301600083015161079060008601826106e8565b5060208301516107a360208601826106ca565b50604083015184820360408601526107bb8282610706565b9150508091505092915050565b600060208201905081810360008301526107e28184610655565b905092915050565b60006060820190506107ff60008301866106f7565b61080c60208301856106d9565b818103604083015261081e818461073f565b9050949350505050565b6000819050602082019050919050565b600081519050919050565b600081519050919050565b6000602082019050919050565b600082825260208201905092915050565b600082825260208201905092915050565b600082825260208201905092915050565b60008115159050919050565b60008190506108a88261099d565b919050565b6000819050919050565b60006108c28261089a565b9050919050565b60005b838110156108e75780820151818401526020810190506108cc565b838111156108f6576000848401525b50505050565b6000600282049050600182168061091457607f821691505b602082108114156109285761092761095d565b5b50919050565b7f4e487b7100000000000000000000000000000000000000000000000000000000600052602160045260246000fd5b7f4e487b7100000000000000000000000000000000000000000000000000000000600052602260045260246000fd5b6000601f19601f8301169050919050565b600581106109ae576109ad61092e565b5b50565b6109ba8161088e565b81146109c557600080fd5b50565b600581106109d557600080fd5b50565b6109e1816108ad565b81146109ec57600080fd5b5056fea2646970667358221220f3521844abf45928e5a97875c97d3f72cd70865b149df61e8802543357f9d74c64736f6c63430008040033",
  "linkReferences": {},
  "deployedLinkReferences": {}
}